:020000040800F2
:10000000005000200D2A0008F1280008F3280008FD
:10001000F5280008F7280008F9280008000000006B
:10002000000000000000000000000000FB280008A5
:10003000FD28000800000000FF2800080129000832
:10004000552A0008552A0008552A0008552A000894
:10005000552A0008552A0008552A0008552A000884
:10006000552A0008552A0008552A0008552A000874
:10007000552A0008552A0008552A0008552A000864
:10008000552A0008552A0008552A00080D2900089D
:100090001D2900082D2900083D290008552A0008BF
:1000A000552A0008552A0008552A0008552A000834
:1000B0005D290008552A0008552A0008552A00081D
:1000C000552A0008552A0008552A0008552A000814
:1000D000552A0008552A00084D290008552A00080D
:1000E0006D290008552A0008552A00080000000064
:1000F0000000000000000000000000000000000000
:0C01000000000000000000005FF808F1A3
:10010C0010B5054C237833B9044B13B10448AFF345
:10011C0000800123237010BD70000020000000003F
:10012C00D032000808B5034B1BB103490348AFF3A9
:10013C00008008BD0000000074000020D0320008D0
:10014C00034613F8012B002AFBD1181A013870470B
:10015C0010B504460E4B18784FF47A73B3FBF0F3DA
:10016C000C4A1068B0FBF3F000F080FD68B90F2C5E
:10017C0001D901200AE0002221464FF0FF3000F0A7
:10018C0033FD034B5C60002000E0012010BD00BF7C
:10019C00000000200800002008B5074A136843F04F
:1001AC0010031360032000F00DFD0020FFF7D0FFBB
:1001BC0002F05AFA002008BD00200240034A1168E0
:1001CC00034B1B780B441360704700BF9C0000204E
:1001DC0000000020014B1868704700BF9C000020F5
:1001EC0030B482B00023019390F82430012B00F03E
:1001FC008B800246012380F824304B68062B29D8CB
:10020C000568686B03EB8303053B1F249C4020EAC5
:10021C0004000C6804FA03F303436B630B68092BAB
:10022C0038D91568E86803EB43031E3B07249C4050
:10023C0020EA04008C6804FA03F30343EB600B68B8
:10024C00103B012B34D90020002382F8243002B05B
:10025C0030BC70470C2B0ED80568286B03EB83035E
:10026C00233B1F249C4020EA04000C6804FA03F38F
:10027C0003432B63D2E70568E86A03EB8303413B36
:10028C001F249C4020EA04000C6804FA03F3034387
:10029C00EB62C3E71568286903EB430307249C4012
:1002AC0020EA04008C6804FA03F303432B61C6E7CD
:1002BC0013681648834205D0936A43F02003936277
:1002CC000120C1E7986810F4000F1BD1986840F426
:1002DC00000098600B68102B01D00020B4E70C4B89
:1002EC001B680C49A1FB03139B0C03EB8303590004
:1002FC00019102E0019B013B0193019B002BF9D181
:10030C000020A1E700209FE70220A0E70024014085
:10031C000800002083DE1B4338B503689A6812F08E
:10032C00010F01D1002038BD04469A6822F0010269
:10033C009A60FFF74FFF054623689B6813F0010F87
:10034C000ED0FFF747FF401B0228F5D9A36A43F0F4
:10035C001003A362E36A43F00103E3620120E2E7C6
:10036C000020E0E700287FD038B50446836A002BD4
:10037C0033D02046FFF7D0FFA36A13F010036DD1E2
:10038C0000286BD1A26A22F4885222F0020242F0B9
:10039C000202A2626268E1690A43257B42EA4502D5
:1003AC00A168B1F5807F21D001291CD0217D0129C4
:1003BC001FD02568696821F469410B436B60216883
:1003CC008D682A4B2B4013438B60A368B3F5807F59
:1003DC0020D0012B1ED000211FE0C36280F82430F6
:1003EC0002F0DAF9C5E74FF48073DFE74FF480735E
:1003FC00DCE735B9A169013943EA413343F40063C1
:10040C00D7E7A16A41F02001A162E16A41F0010144
:10041C00E162CEE72369013B19052568EB6A23F4F9
:10042C0070030B43EB6223689968114B0B409A42A3
:10043C000BD0A36A23F0120343F01003A362E36A08
:10044C0043F00103E36201200DE00023E362A36AA1
:10045C0023F0030343F00103A36204E0A36A43F017
:10046C001003A362012038BD01207047FDF7E1FFA6
:10047C00FE0E1FFF002800F0A18038B5044690F84E
:10048C002030D3B12268136823F002031360FFF706
:10049C00A1FE054623685A6812F0020F10D0FFF730
:1004AC0099FE401B0A28F5D9636A43F40033636252
:1004BC00052384F82030012038BD02F0F3F8E1E781
:1004CC001A6842F001021A60FFF784FE05462368A1
:1004DC005A6812F0010F0DD1FFF77CFE401B0A2861
:1004EC00F5D9636A43F400336362052384F8203042
:1004FC000120E1E7227E012A3DD01A6822F0800219
:10050C001A60637E012B3BD02268136823F04003F2
:10051C001360A37E012B39D02268136823F02003CB
:10052C001360E37E012B37D02268136843F010036D
:10053C001360237F012B35D02268136823F0080346
:10054C001360637F012B33D02268136823F00403FC
:10055C001360A368E268134322691343626913436F
:10056C006268013A21681343CB6100206062012369
:10057C0084F82030A0E71A6842F080021A60C0E7C5
:10058C002268136843F040031360C2E722681368C3
:10059C0043F020031360C4E72268136823F01003B0
:1005AC001360C6E72268136843F008031360C8E7BA
:1005BC002268136843F004031360CAE701207047F4
:1005CC00036890F82020013AD2B2012A05D9436A77
:1005DC0043F4802343620120704770B4D3F80022A7
:1005EC0042F00102C3F800224A6902F01F02012006
:1005FC0000FA02F2D3F81C42D0430440C3F81C4268
:10060C00CC69ACB9D3F80C420440C3F80C42CE68A8
:10061C008D884C6945EA0645483443F834508E6859
:10062C000D884C6945EA0645483403EBC404656003
:10063C00CC69012C19D08C6974BBD3F804420440EA
:10064C00C3F804420C696CBBD3F814422040C3F8C5
:10065C001402096A01292BD0D3F8002222F00102DE
:10066C00C3F80022002070BC7047D3F80C4214432E
:10067C00C3F80C420E688D884C6945EA064548342F
:10068C0043F834508E688D894C6945EA06454834E8
:10069C0003EBC4046560CEE7D3F804421443C3F8FB
:1006AC000442CFE7D3F814021043C3F81402D0E786
:1006BC00D3F81C120A43C3F81C22CDE738B590F8C6
:1006CC002030DBB2012B05D0436A43F40023436294
:1006DC00012038BD0446022380F8203002681368DC
:1006EC0023F001031360FFF775FD054623685B6873
:1006FC0013F0010F0DD0FFF76DFD401B0A28F5D943
:10070C00636A43F400336362052384F820300120CC
:10071C00DFE700206062DCE770B490F820400568E9
:10072C00AD68013CE4B2012C06D9436A43F4802342
:10073C004362012070BC704715F0E05F5BD0C5F3DD
:10074C000165022D3ED80124AC401C608B68002B47
:10075C003ED10E68CB68046843EA465605F118038F
:10076C001B01E65003680C6905F1180603EB061330
:10077C005C600B7D012B36D0D17993791B0443EA55
:10078C000163517943EA01231479016823432C0155
:10079C002144C1F88C31D17893781B0443EA01636E
:1007AC00517843EA0123117802680B432244C2F8C2
:1007BC008831026818352D01535943F00103535108
:1007CC000020B7E7436A43F4000343620120B1E71A
:1007DC004C6843EAC403CC680668234305F118044B
:1007EC0024013351BEE7036803EB0613596841F447
:1007FC0080715960C0E7436A43F4001343620120DF
:10080C0098E730B490F82040013CE4B2012C06D9B2
:10081C00436A43F480234362012030BC70470029B3
:10082C006FD10468E46814F0030F64D0056801F11B
:10083C001B0424012C5904F004049460002C6BD18B
:10084C00056801F11B0424012C59640D1460056822
:10085C0001F11B0424012D5905F00205D560056832
:10086C0025446D6805F00F051561056825446D6814
:10087C00C5F30725956105682C446468240C546104
:10088C0004680A011444D4F8B8411C700468144478
:10089C00D4F8B841C4F307245C7004681444D4F849
:1008AC00B841C4F307449C7004681444D4F8B841AC
:1008BC00240EDC7004681444D4F8BC411C71046828
:1008CC001444D4F8BC41C4F307245C710468144488
:1008DC00D4F8BC41C4F307449C7104682244D2F898
:1008EC00BC21120EDA71F9B90268D36843F0200307
:1008FC00D360002091E7436A43F400134362012064
:10090C008BE70468246914F0030F8FD1436A43F416
:10091C0000134362012080E7056801F11B042401E8
:10092C002C59E408546092E70268136943F02003E1
:10093C001361002071E790F82030013BDBB2012BF2
:10094C0005D9436A43F4802343620120704702684F
:10095C0053691943516100207047704770477047C5
:10096C00704770477047704770472DE9F84F054640
:10097C0003685C695F689E68D3F80C90D3F81080AC
:10098C00D3F818A014F0010F5AD016F0010F17D09D
:10099C0001229A6016F0020F08D116F0040F30D124
:1009AC0016F0080F07D04FF4805B0BE001F00EFD42
:1009BC004FF0000B06E0FFF7D0FF4FF0000B01E00B
:1009CC004FF0000B16F4807F0BD02B684FF4807225
:1009DC009A6016F4007F17D116F4806F18D04BF480
:1009EC00005B16F4803F2DD02B684FF480329A6058
:1009FC0016F4003F16D116F4802F17D04BF4004B91
:100A0C0020E04FF4006BDDE7284601F0F9FCE8E745
:100A1C0016F4006F02D04BF4804BE2E72846FFF748
:100A2C009DFFDEE7284601F005FD0BE016F4002FD4
:100A3C0002D04BF4803B05E02846FFF790FF01E025
:100A4C004FF0000B14F0080F07D019F0100F04D062
:100A5C004BF4007B2B681022DA6014F0040F02D0E8
:100A6C0019F0080F60D114F0020F04D02B68DB686A
:100A7C0013F0030F5FD114F0400F07D018F0100FD4
:100A8C0004D04BF4806B2B6810221A6114F0200FE9
:100A9C0002D018F0080F52D114F0100F04D02B68AC
:100AAC001B6913F0030F51D114F4003F02D017F05F
:100ABC00100F4FD114F4803F02D017F0080F50D113
:100ACC0014F4004F67D017F0040F61D014F4807F3A
:100ADC0004D01AF0010F01D04BF0010B14F4007F7D
:100AEC0004D01AF0020F01D04BF0020B14F4806FFB
:100AFC0004D01AF0040F01D04BF0040B14F4006F67
:100B0C0046D01AF0700A43D0BAF1300F48D02FD922
:100B1C00BAF1500F47D0BAF1600F47D0BAF1400F7D
:100B2C0031D14BF0400B2EE02B680822DA602846BE
:100B3C00FFF716FF97E7284601F096FC9BE72B681A
:100B4C0008221A612846FFF70DFFA5E72846FFF794
:100B5C0008FFA9E72B6810225A602846FFF703FF0D
:100B6C00A8E72B6808225A602846FFF7FDFEA7E786
:100B7C00BAF1100F05D0BAF1200F04D14BF0100BC5
:100B8C0001E04BF0080B2A68936923F07003936122
:100B9C002B6804225A60BBF1000F0AD1BDE8F88F14
:100BAC004BF0200BEFE74BF0800BECE74BF4807B2A
:100BBC00E9E76B6A43EA0B036B62284601F0EAFC37
:100BCC00ECE70000074AD36823F4E0631B041B0C1A
:100BDC00000200F4E060184340F0BF6040F40030C5
:100BEC00D060704700ED00E030B4174BDB68C3F306
:100BFC000223C3F10704042C28BF04241D1D062D59
:100C0C0018D9033B4FF0FF3505FA04F421EA04012F
:100C1C00994005FA03F322EA0303194300280BDB7E
:100C2C000901C9B200F1604000F5614080F8001381
:100C3C0030BC70470023E5E700F00F000901C9B292
:100C4C00024B1954F4E700BF00ED00E014ED00E096
:100C5C00002807DB00F01F02400901239340024AE1
:100C6C0042F82030704700BF00E100E00138B0F1DD
:100C7C00807F0AD2064B5860064AF02182F8231076
:100C8C000020986007221A6070470120704700BF4F
:100C9C0010E000E000ED00E0704708B5FFF7FCFF46
:100CAC0008BD000008B590F82130022B03D00423B6
:100CBC008363012008BD0268136823F00E031360E0
:100CCC000268136823F0010313600368194A934206
:100CDC0014D0143293421FD0143293421ED01432CB
:100CEC0093421ED0143293421ED01432934202D03F
:100CFC004FF0807203E04FF4801200E001220E4BA3
:100D0C005A60012380F82130002380F82030436B97
:100D1C006BB198470020CDE71022F0E74FF48072BA
:100D2C00EDE74FF48052EAE74FF48032E7E700201A
:100D3C00C0E700BF0800024000000240F0B482B0DF
:100D4C0000263246A2E0002D5AD0012D00D1CE68EB
:100D5C00FF2B69D88446FF2B69D89500DCF800403E
:100D6C000F27AF4024EA070406FA05F52C43CCF80C
:100D7C0000404C6814F0805F00F087805F4CA569E0
:100D8C0045F00105A561A46904F001040194019CDE
:100D9C009508AF1C5A4C54F8274002F00307BF00CB
:100DAC004FF00F0C0CFA07FC24EA0C0C554CA0422B
:100DBC0043D004F58064A04200F0818004F5806487
:100DCC00A0427ED004F58064A04234D0042435E0E7
:100DDC004D4FBD4214D00BD94C4FBD4210D007F52E
:100DEC008037BD420CD0A7F58017BD42B0D107E0CB
:100DFC00A7F58017BD4203D007F58037BD42A7D1B8
:100E0C008D687DB1012D08D044610826A0E7CE681D
:100E1C0008369DE7CE680C369AE70461082697E7FA
:100E2C00002695E7042693E700F1040C93E7A2F162
:100E3C000805AD0092E7032400E00024BC4044EA1E
:100E4C000C0402352E4F47F825404C6814F4803FB3
:100E5C0039D02F4D2C681C432C604C6814F4003F87
:100E6C0037D02B4D6C681C436C604C6814F4801F9D
:100E7C0035D0274DAC681C43AC604C6814F4001F93
:100E8C0033D0234DEC682343EB6001320B6833FA0B
:100E9C0002F430D00124944023409C42F5D14D689B
:100EAC00122DB7D094D8022DB1D07FF64CAF032DB4
:100EBC00B6D0112D7FF44CAFCE68043648E7012430
:100ECC00BCE70224BAE7124D2C6824EA03042C6018
:100EDC00C3E70F4D6C6824EA03046C60C5E70C4D46
:100EEC00AC6824EA0304AC60C7E7094DEC6824EA5B
:100EFC000303EB60C9E702B0F0BC7047001002407E
:100F0C0000000140000801400000211000003110D9
:100F1C000004014012B90904016170470161704776
:100F2C007047000008B5054B5B69034200D108BD52
:100F3C00024B5861FFF7F4FFF9E700BF00040140D2
:100F4C0082B0084B1B68084AA2FB03235B0A00FB18
:100F5C0003F0019000BF019B5A1E0192002BF9D1A6
:100F6C0002B0704708000020D34D6210002800F03A
:100F7C00F58170B582B00446036813F0010F2CD0D4
:100F8C00AB4B5B6803F00C03042B1DD0A84B5B68C8
:100F9C0003F00C03082B12D06368B3F5803F41D0EB
:100FAC00002B55D103F1804303F504331A6822F466
:100FBC0080321A601A6822F480221A6037E09C4B47
:100FCC005B6813F4803FE7D0994B1B6813F4003F28
:100FDC0003D06368002B00F0C381236813F0020F69
:100FEC0076D0934B5B6813F00C0F5FD0904B5B6823
:100FFC0003F00C03082B54D02369002B00F08A80DB
:10100C008C4B01221A60FFF7E5F80546884B1B68EC
:10101C0013F0020F75D1FFF7DDF8401B0228F5D94C
:10102C000320A0E1824A136843F4803313606368A1
:10103C0043B3FFF7CFF805467D4B1B6813F4003F15
:10104C00CBD1FFF7C7F8401B6428F5D903208AE100
:10105C00B3F5A02F09D0764B1A6822F480321A60AF
:10106C001A6822F480221A60E1E703F18043A3F5A9
:10107C003C331A6842F480221A601A6842F48032B7
:10108C001A60D4E7FFF7A6F80546694B1B6813F402
:10109C00003FA2D0FFF79EF8401B6428F5D903202F
:1010AC0061E1634B5B6813F4803FA5D1604B1B6817
:1010BC0013F0020F04D02369012B01D0012052E15F
:1010CC005B4A136823F0F803616943EAC1031360B8
:1010DC00236813F0080F32D0A369002B5BD0564B5A
:1010EC0001221A60FFF776F80546514B5B6A13F044
:1010FC00020F21D1FFF76EF8401B0228F5D903200F
:10110C0031E14B4A136823F0F803616943EAC103E8
:10111C001360DDE7474B00221A60FFF75BF80546CA
:10112C00434B1B6813F0020FD2D0FFF753F8401B50
:10113C000228F5D9032016E10120FFF701FF2368EF
:10114C0013F0040F00F09880394BDB6913F0805FCB
:10115C0033D1374BDA6942F08052DA61DB6903F044
:10116C0080530193019B0125344B1B6813F4807F42
:10117C0025D0E368012B36D0002B4CD103F18043F2
:10118C0003F504331A6A22F001021A621A6A22F079
:10119C0004021A622CE0284B00221A60FFF71AF89E
:1011AC000546234B5B6A13F0020FC8D0FFF712F809
:1011BC00401B0228F5D90320D5E00025D4E71F4AAF
:1011CC00136843F480731360FFF704F806461B4B57
:1011DC001B6813F4807FCCD1FEF7FCFF801B6428C6
:1011EC00F5D90320BFE0124A136A43F001031362DE
:1011FC00E3687BB3FEF7EEFF06460D4B1B6A13F05C
:10120C00020F38D1FEF7E6FF801B41F2883398427B
:10121C00F3D90320A7E0052B12D0054B1A6A22F054
:10122C0001021A621A6A22F004021A62E0E700BF95
:10123C000010024000004242800442420070004014
:10124C004C4B1A6A42F004021A621A6A42F001020A
:10125C001A62CDE7FEF7BEFF0646464B1B6A13F03B
:10126C00020F08D0FEF7B6FF801B41F2883398427C
:10127C00F3D9032077E0E5B9E369002B72D03D4A3E
:10128C00526802F00C02082A56D0022B17D03A4BA7
:10129C0000221A60FEF79EFF0446364B1B6813F0C3
:1012AC00007F47D0FEF796FF001B0228F5D90320DC
:1012BC0059E0304AD36923F08053D361DCE72E4BDD
:1012CC0000221A60FEF786FF05462A4B1B6813F0B6
:1012DC00007F06D0FEF77EFF401B0228F5D90320C5
:1012EC0041E0236AB3F5803F1AD022494B6823F4BE
:1012FC007413226A606A024313434B601E4B012233
:10130C001A60FEF767FF04461A4B1B6813F0007F48
:10131C000ED1FEF75FFF001B0228F5D9032022E057
:10132C00144A536823F40033A1680B435360DCE781
:10133C00002018E0002016E0012B16D00D4B5B6846
:10134C0003F48031226A914201D001200BE003F4B6
:10135C007013626A93420AD0012004E001207047A6
:10136C00012000E0002002B070BD0120FBE700204E
:10137C00F9E700BF001002406000424210B487B091
:10138C00164C94E80F000DF1180C0CE90F00238A91
:10139C00ADF80430124B5B6803F00C02082A1AD12A
:1013AC00C3F38342624412F8102C13F4803F05D12E
:1013BC000C4800FB02F007B010BC7047084B5B6890
:1013CC00C3F34043634413F8143C074800FB02F09A
:1013DC00B0FBF3F0EFE70448EDE700BFE83200089C
:1013EC000010024000093D0000127A00002800F0B5
:1013FC00A38070B50446524B1B6803F007038B4265
:10140C000CD24F4A136823F007030B431360136885
:10141C0003F007038B4201D0012070BD236813F049
:10142C00020F17D013F0040F04D0464A536843F44C
:10143C00E0635360236813F0080F04D0414A5368EB
:10144C0043F4605353603F4A536823F0F003A068A1
:10145C00034353600D46236813F0010F31D06368CA
:10146C00012B20D0022B25D0364A126812F0020F25
:10147C0064D034494A6822F0030213434B60FEF7F0
:10148C00A9FE06462F4B5B6803F00C036268B3EBB6
:10149C00820F16D0FEF79EFE801B41F288339842D5
:1014AC00F0D90320B9E7274A126812F4003FE0D1C3
:1014BC000120B2E7234A126812F0007FD9D1012033
:1014CC00ABE71F4B1B6803F00703AB420CD91C4A5C
:1014DC00136823F007032B431360136803F007030F
:1014EC00AB4201D0012098E7236813F0040F06D01B
:1014FC00144A536823F4E063E1680B435360236898
:10150C0013F0080F07D00F4A536823F46053216976
:10151C0043EAC1035360FFF731FF0A4B5B68C3F327
:10152C000313094AD35CD840084B1860084B186861
:10153C00FEF70EFE002070E70120704701206CE7DB
:10154C000020024000100240043300080800002074
:10155C0004000020014B1868704700BF08000020F1
:10156C0008B5FFF7F7FF044B5B68C3F30223034A8C
:10157C00D35CD84008BD00BF0010024014330008F3
:10158C0008B5FFF7E7FF044B5B68C3F3C223034ABC
:10159C00D35CD84008BD00BF0010024014330008D3
:1015AC0070B4036A23F001030362036A426884691E
:1015BC0024F073040D6845EA040623F002048B68DA
:1015CC0023430D4DA84209D00B4DA8420DD04260CB
:1015DC0086614A684263036270BC704723F008035B
:1015EC00CC68234323F00403EEE722F440724C69E9
:1015FC0014438A692243EAE7002C014030B4036AA1
:10160C0023F480730362036A4268C46924F0730490
:10161C000D682C4323F400738D6843EA05230F4DAA
:10162C00A84209D00D4DA8420ED04260C4614A6850
:10163C00C263036230BC704723F40063CD6843EA95
:10164C00052323F48063EDE722F440524D6942EA0E
:10165C0005128D6942EA0512E7E700BF002C014034
:10166C0030B4036A23F480530362036A4468C2698A
:10167C0022F4E6420D6842EA052223F400538D68F9
:10168C0043EA0533074DA84206D04460C2614A685C
:10169C000264036230BC704724F480444D6944EA10
:1016AC008514F2E7002C01400268D36843F0010373
:1016BC00D3600268936803F00703062B03D013680A
:1016CC0043F0010313600020704770477047704768
:1016DC00704710B5044603681A6912F0020F11D056
:1016EC00DA6812F0020F0DD06FF002021A610123BA
:1016FC00037703689B6913F0030F70D0FFF7E6FFC5
:10170C000023237723681A6912F0040F12D0DA68C9
:10171C0012F0040F0ED06FF004021A61022323772B
:10172C0023689B6913F4407F5FD02046FFF7CEFF00
:10173C000023237723681A6912F0080F12D0DA6895
:10174C0012F0080F0ED06FF008021A6104232377F1
:10175C002368DB6913F0030F4ED02046FFF7B6FF6A
:10176C000023237723681A6912F0100F12D0DA685D
:10177C0012F0100F0ED06FF010021A6108232377AD
:10178C002368DB6913F4407F3DD02046FFF79EFFB2
:10179C000023237723681A6912F0010F03D0DA684B
:1017AC0012F0010F36D123681A6912F0800F03D0A2
:1017BC00DA6812F0800F34D123681A6912F0400FE6
:1017CC0003D0DA6812F0400F32D123681A6912F094
:1017DC00200F03D0DA6812F0200F30D110BDFFF7C4
:1017EC0074FF2046FFF773FF8AE72046FFF76DFF73
:1017FC002046FFF76CFF9BE72046FFF766FF20466D
:10180C00FFF765FFACE72046FFF75FFF2046FFF7C9
:10181C005EFFBDE76FF001021A61204600F020FF69
:10182C00C1E76FF080021A61204600F09DF9C3E712
:10183C006FF040021A612046FFF74AFFC5E76FF0D0
:10184C0020021A61204600F08EF9C7E703681B4A94
:10185C0090420AD0B0F1804F07D0A2F5943290425A
:10186C0003D002F58062904203D123F070034A68E2
:10187C001343124A90420AD0B0F1804F07D0A2F520
:10188C009432904203D002F58062904203D123F44B
:10189C004073CA68134323F080034A6913430360FF
:1018AC008B68C3620B688362044B984202D001239D
:1018BC00436170470B690363F9E700BF002C0140DB
:1018CC00A8B110B5044690F83D305BB1022384F802
:1018DC003D30211D2068FFF7B9FF012384F83D300E
:1018EC00002010BD80F83C3000F038FFEEE70120FE
:1018FC007047A8B110B5044690F83D305BB1022397
:10190C0084F83D30211D2068FFF7A0FF012384F8E7
:10191C003D30002010BD80F83C3000F06DFFEEE74C
:10192C000120704730B4036A23F010030362036A8A
:10193C004468826922F4E6420D6842EA052223F0EB
:10194C0020038D6843EA05130E4DA84209D00D4DB6
:10195C00A8420ED0446082614A688263036230BC44
:10196C00704723F08003CD6843EA051323F040034E
:10197C00EDE724F440644D6944EA85048D6944EA3A
:10198C008504E7E7002C014038B590F83C30012B7A
:10199C0066D00D460446012380F83C30022380F8C3
:1019AC003D300C2A1AD8DFE802F007191919201952
:1019BC0019193419191947000068FFF7F1FD22684D
:1019CC00936943F0080393612268936923F004033D
:1019DC0093612268936929690B439361012384F80D
:1019EC003D30002084F83C0038BD0068FFF79AFFBA
:1019FC002268936943F4006393612268936923F42A
:101A0C008063936122689369296943EA0123936196
:101A1C00E4E70068FFF7F2FD2268D36943F008039E
:101A2C00D3612268D36923F00403D3612268D3699C
:101A3C0029690B43D361D1E70068FFF711FE2268D7
:101A4C00D36943F40063D3612268D36923F48063C0
:101A5C00D3612268D369296943EA0123D361BDE7C5
:101A6C000220C1E710B401F01F01012303FA01F4B5
:101A7C00036A23EA04030362036A8A401343036282
:101A8C0010BC704710B5044601220068FFF7EAFF4E
:101A9C0023680A4A93420BD02268936803F0070329
:101AAC00062B03D0136843F001031360002010BD14
:101ABC005A6C42F400425A64EEE700BF002C01401D
:101ACC0010B5044600220068FFF7CCFF2368134AC8
:101ADC00934213D02368196A41F21112114208D1B2
:101AEC00196A40F24442114203D11A6822F00102F1
:101AFC001A60012384F83D30002010BD196A41F2B0
:101B0C0011121142E6D1196A40F244421142E1D15C
:101B1C005A6C22F400425A64DCE700BF002C0140EE
:101B2C0090F83C30012B1CD070B4012680F83C603E
:101B3C00022380F83D3002685568936825F07005E3
:101B4C000C682C4323F080054B682B4354600268CF
:101B5C00936080F83D60002380F83C30184670BCE0
:101B6C00704702207047704770470268D36823F4AF
:101B7C009073D3600268536923F0010353612023EF
:101B8C0080F83A30704790F83930DBB2212B2AD1EB
:101B9C008368B3F5805F16D0036A5A1C02621A7808
:101BAC0003685A60C38C013B9BB2C384EBB90268D7
:101BBC00D36823F08003D3600268D36843F04003FA
:101BCC00D36000207047036A1B880268C3F30803C4
:101BDC00536003691BB9036A02330362E2E7036AC9
:101BEC0001330362DEE702207047002070470000DB
:101BFC0038B504460268136923F44053C1680B439B
:101C0C00136183680269134342691A430168CB6804
:101C1C0023F4B05323F00C031343CB6002685369D5
:101C2C0023F4407381690B4353610268214B9A4240
:101C3C001FD0FFF795FC00EB800000EB8000636881
:101C4C009B00B0FBF3F01C4DA5FB00325109642244
:101C5C0002FB110213013233A5FB03235B0903F0D2
:101C6C00F00202EB011203F00F03216813448B60A6
:101C7C0038BDFFF785FC00EB800000EB800063684B
:101C8C009B00B0FBF3F00C4DA5FB00325109642214
:101C9C0002FB110213013233A5FB03235B0903F092
:101CAC00F00202EB011203F00F03216813448B6066
:101CBC00DEE700BF003801401F85EB512DE9F041F4
:101CCC0005460F4616469846069C2B681B6837EA55
:101CDC0003030CBF01230023B3421DD1B4F1FF3F1A
:101CEC00F3D02CB1FEF776FAA0EB0800A042ECD9A9
:101CFC002A68D36823F4D073D3602A68536923F01D
:101D0C0001035361202385F8393085F83A300023DC
:101D1C0085F83830032000E00020BDE8F08158B38E
:101D2C0010B5044690F839300BB3242384F83930BD
:101D3C002268D36823F40053D3602046FFF758FF82
:101D4C002268136923F4904313612268536923F0CA
:101D5C002A0353612268D36843F40053D3600020F4
:101D6C00E063202384F8393084F83A3010BD80F8D1
:101D7C00383000F07FFDD8E7012070472DE9F041A5
:101D8C0082B01E4690F83930DBB2202B55D1044678
:101D9C000D469046002955D0002A55D090F8383081
:101DAC00012B53D0012380F838300023C363212347
:101DBC0080F83930FEF70EFA0746A4F82480A4F810
:101DCC00268010E000963B46002280212046FFF73B
:101DDC0075FF00283CD12B882268C3F3080353609D
:101DEC002369C3B90235E38C9BB2B3B1E38C013BDD
:101DFC009BB2E384A368B3F5805FE3D000963B46C7
:101E0C00002280212046FFF759FF18BB2A7823684F
:101E1C005A600135E7E70135E5E700963B460022BD
:101E2C0040212046FFF74AFF0346A8B9202284F838
:101E3C003920002284F8382000E00223184602B032
:101E4C00BDE8F0810123F9E70123F7E70223F5E769
:101E5C000323F3E70323F1E70323EFE7704708B508
:101E6C000168CB6823F04003CB60202380F8393025
:101E7C00FFF7F4FF002008BD704708B590F83A3022
:101E8C00DBB2222B45D18368B3F5805F0ED003699A
:101E9C0003BB03685A68836A591C81621A70C38D2C
:101EAC00013B9BB2C385F3B1002033E0826A036926
:101EBC0043B903685B68C3F308031380836A023376
:101ECC008362ECE703685B68DBB21380836A0133DF
:101EDC008362E4E703685B68826A511C816203F0E9
:101EEC007F031370DBE70268D36823F02003D36011
:101EFC000268D36823F48073D3600268536923F0BB
:101F0C0001035361202380F83A30FFF7B5FF00201E
:101F1C0000E0022008BD704710B504460268136843
:101F2C00D168526913F00F0005D113F0200F02D0C5
:101F3C0011F0200F53D1002867D012F0010202D10A
:101F4C0011F4907F61D013F0010F06D011F4807F53
:101F5C0003D0E06B40F00100E06313F0040F04D0F9
:101F6C001AB1E06B40F00200E06313F0020F04D0F2
:101F7C001AB1E06B40F00400E06313F0080F04D0DA
:101F8C001AB1E26B42F00802E263E26B002A48D01D
:101F9C0013F0200F02D011F0200F24D123685B69BD
:101FAC0003F04003E26B12F0080F00D13BB3204664
:101FBC00FFF7DBFD23685A6912F0400F1BD05A69FA
:101FCC0022F040025A61636B8BB11A4A5A63606B00
:101FDC00FEF768FE28B3606B436B984721E0204600
:101FEC00FFF74BFF1DE02046FFF747FFD6E72046E3
:101FFC00FFF791FF15E02046FFF78DFF11E020461B
:10200C00FFF789FF0023E3630BE013F0800F02D08E
:10201C0011F0800F06D113F0400F02D011F0400FD9
:10202C0004D110BD2046FFF7AEFDFAE72046FFF7BE
:10203C0016FFF6E74520000808B5406A0023C38563
:10204C00C384FFF768FF08BDF0B589B00024049481
:10205C00059406940794424B9A6942F010029A61D7
:10206C009A6902F010020092009A9A6942F02002DA
:10207C009A619A6902F020020192019A9A6942F0DF
:10208C0004029A619A6902F004020292029A9A6915
:10209C0042F008029A619B6903F008030393039BC7
:1020AC00304F224620213846FEF734FF2E4E224672
:1020BC004FF450713046FEF72DFF4FF4005304934C
:1020CC002A4B0593069404A93046FEF737FE2023CD
:1020DC00049301250595069404A93846FEF72EFEB7
:1020EC004FF4507304930595069404A93046FEF7FB
:1020FC0025FE80230493059506940323079304A9D6
:10210C003846FEF71BFE04950595069402270797A3
:10211C0004A93046FEF712FE04970595069407971E
:10212C0004A93046FEF70AFE042304930595069491
:10213C00079704A93046FEF701FE08230493059582
:10214C000694079704A93046FEF7F8FD224621466F
:10215C002820FEF749FD2820FEF77AFD09B0F0BDD6
:10216C000010024000080140001001400000211046
:10217C0070B584B000250195029503950B4C0C4B62
:10218C002360A560257325754FF46023E3616560BA
:10219C00012626612046FEF7E5F801950296039587
:1021AC0001A92046FEF71CF804B070BD0801002000
:1021BC000024014008B50C480C4B0360122343600B
:1021CC0000238360C3604FF4402202614FF48012FD
:1021DC0042610376012242768376C2760377437797
:1021EC00FEF748F908BD00BFA000002000640040C5
:1021FC0008B507484FF08043036040F2CF7343604B
:10220C000023836040F60F63C360FFF759FB08BDE2
:10221C003801002030B58BB0002408940994019447
:10222C00029403940494059406940794124D134B52
:10223C002B6041F287336B60AC6040F2E733EB60AC
:10224C002C61AC612846FFF754FB0894099408A94B
:10225C002846FFF765FC60230193EB680293039417
:10226C000594224601A92846FFF78EFB284600F06C
:10227C00D9FA0BB030BD00BFC800002000040040EC
:10228C0008B50848084B03604FF4E1334360002362
:10229C008360C36003610C2242618361C361FFF7F9
:1022AC003EFD08BD780100200044004030B591B0DF
:1022BC000024089409940B940C94019402940394B4
:1022CC0004940594012306934FF4A02207920A93D9
:1022DC0002250D954FF480330E934FF4E0130F93BA
:1022EC0006A8FEF743FE0F230193029503944FF4C7
:1022FC00806304930594294601A8FFF777F811B081
:10230C0030BD000000B58BB001220892002305936C
:10231C0004930093019302930393069307926946E7
:10232C000248FEF74DF90BB05DF804FBA00000204D
:10233C0000B58FB0FDF730FFFFF7B8FFFFF784FE55
:10234C00FFF716FFFFF736FFFFF752FFFFF762FFAD
:10235C00FFF796FFFFF7D6FF184C0022012120460D
:10236C00FEF7D8FD002202212046FEF7D3FD002205
:10237C0004212046FEF7CEFD002208212046FEF760
:10238C00C9FD0F4B01AC0FCB07C424F8023B1B0C4F
:10239C00237001A8FDF7D4FE4FF0FF3382B201A9E0
:1023AC000848FFF7EBFC084C40F203412046FEF7CF
:1023BC00C2FA2046FEF782F9FEE700BF001001408A
:1023CC001C33000878010020A000002030B59BB021
:1023DC0001AC094D0FCD0FC495E8070003C4227062
:1023EC0001A8FDF7ADFE4FF0FF3382B201A90348FF
:1023FC00FFF7C4FC1BB030BD2C3300087801002063
:10240C0030B59BB001AC094D0FCD0FC495E807005A
:10241C0003C4227001A8FDF793FE4FF0FF3382B284
:10242C0001A90348FFF7AAFC1BB030BD48330008D4
:10243C007801002030B59BB001AC094D0FCD0FC415
:10244C0095E8070003C4227001A8FDF779FE4FF050
:10245C00FF3382B201A90348FFF790FC1BB030BDDB
:10246C006433000878010020F0B5A5B0424C22ABD3
:10247C0022460021FEF7C5F9226840F25D639A42BC
:10248C0007D00024264625462746412C2FD025B0C0
:10249C00F0BDE36823B10024264625462746F4E721
:1024AC009DF888309DF889709DF88A109DF88B50A6
:1024BC009DF88C609DF88D009DF88EC09DF88F4026
:1024CC000694CDF814C004900396029501910097E0
:1024DC002A4909A800F0E4FA09A8FDF731FE4FF0EB
:1024EC00FF3382B209A92648FFF748FCCDE7012D3E
:1024FC00CDD1012ECBD1012F1ED0224C0021204654
:10250C00FFF7DEFA002280211F48FEF703FD0021B1
:10251C002046FFF7B7FA09AC1C4D0FCD0FC42B6842
:10252C00238009A8FDF70CFE4FF0FF3382B209A9F6
:10253C001348FFF723FCAAE7124C00212046FFF7B3
:10254C00BFFA012280211048FEF7E4FC002120464E
:10255C00FFF798FA09AC0E4D0FCD0FC42B682380F2
:10256C0009A8FDF7EDFD4FF0FF3382B209A904482D
:10257C00FFF704FC8BE700BFD0010020803300087C
:10258C0078010020C800002000080140C833000872
:10259C00B433000830B59BB001AC0A4D0FCD0FC45D
:1025AC0095E8030044F8040B217001A8FDF7C8FD61
:1025BC004FF0FF3382B201A90348FFF7DFFB1BB0DA
:1025CC0030BD00BFDC33000878010020F0B59DB0B1
:1025DC001D4B19AF93E8030087E803001B4E08233B
:1025EC00336140F25D6333600023B360F3606C468B
:1025FC00174D0FCD0FC42B6823806846FDF7A0FD47
:10260C004FF0FF3382B269461248FFF7B7FB1BABA2
:10261C003A4631461048FEF77FF808B91DB0F0BDB8
:10262C000E4B6C460FCB07C424F8023B1B0C2370DB
:10263C006846FDF785FD4FF0FF3382B269460548C9
:10264C00FFF79CFBEAE700BFFC320008B801002052
:10265C00F433000878010020A000002008340008A2
:10266C0008B5FFF7B3FF08BD08B50320FEF7AAFABB
:10267C000B4A536A43F4E0235362002211466FF075
:10268C000B00FEF7B1FA002211466FF00A00FEF7BC
:10269C00ABFA002211466FF00900FEF7A5FA08BD4F
:1026AC0000ED00E030B587B0002302930393049350
:1026BC0005930268274B9A4201D007B030BD03F551
:1026CC00D633DA6942F00072DA61DA6902F000722C
:1026DC000092009A9A6942F004029A619B6903F095
:1026EC0004030193019B06AC4FF4006344F8103DC6
:1026FC00194D21462846FEF721FB4FF480530293D7
:10270C00022303930323059321462846FEF716FB69
:10271C0000220F211320FEF767FA1320FEF798FA18
:10272C0000220F211420FEF75FFA1420FEF790FA16
:10273C0000220F211520FEF757FA1520FEF788FA14
:10274C0000220F211620FEF74FFA1620FEF780FA12
:10275C00B3E700BF00640040000801400368B3F118
:10276C00804F00D0704700B583B003F50433DA69AD
:10277C0042F00102DA61DB6903F001030193019B72
:10278C0000220F211C20FEF72FFA1C20FEF760FA06
:10279C0003B05DF804FB000000B587B00023029382
:1027AC000393049305930268114B9A4202D007B02D
:1027BC005DF804FB03F56C439A6942F400729A616C
:1027CC009A6902F400720092009A9A6942F004022B
:1027DC009A619B6903F004030193019B012302930B
:1027EC000323039302A90348FEF7A8FADFE700BF0F
:1027FC0000240140000801400268094B9A4200D0B5
:10280C00704782B003F50333DA6942F00202DA61F1
:10281C00DB6903F002030193019B02B0704700BF18
:10282C000004004000B587B0002302930393049387
:10283C00059302680D4B9A4202D007B05DF804FB79
:10284C0003F503339A6942F004029A619B6903F021
:10285C0004030193019B40230293022303930593EA
:10286C0002A90348FEF76AFAE7E700BF000400403C
:10287C000008014000B587B0002302930393049332
:10288C0005930268154B9A4202D007B05DF804FB21
:10289C0003F5E633DA6942F40032DA61DA6902F4FC
:1028AC0000320092009A9A6942F004029A619B6984
:1028BC0003F004030193019B0C2302930223039363
:1028CC00059302A90648FEF739FA2620FEF7C0F94F
:1028DC0000220F212620FEF787F9D6E7004400409E
:1028EC00000801407047FEE7FEE7FEE7FEE7704791
:1028FC007047704708B5FDF761FCFEF7CEF908BDCF
:10290C0008B50248FEF731F808BD00BFA000002052
:10291C0008B50248FEF729F808BD00BFA00000204A
:10292C0008B50248FEF721F808BD00BFA000002042
:10293C0008B50248FEF719F808BD00BFA00000203A
:10294C0008B50248FFF7E8FA08BD00BF780100207F
:10295C0008B50248FEF7BDFE08BD00BF38010020D7
:10296C0008B50448FEF7A0FE4FF40050FEF7DAFA63
:10297C0008BD00BF3801002008B503460B4A126899
:10298C0042B10A4A106803446A46934206D8074A81
:10299C00136008BD054A06491160F2E700F056F8CD
:1029AC000C2303604FF0FF30F3E700BF8C000020D6
:1029BC00F00100200F4B1A6842F001021A605968AE
:1029CC000D4A0A405A601A6822F0847222F480324E
:1029DC001A601A6822F480221A605A6822F4FE02E5
:1029EC005A604FF41F029A60044B4FF000629A60D9
:1029FC00704700BF001002400000FFF800ED00E03F
:102A0C00002103E00B4B5B58435004310A480B4B3D
:102A1C0042189A42F6D30A4A02E0002342F8043BD9
:102A2C00084B9A42F9D3FFF7C5FF00F015F8FFF7F2
:102A3C007FFC704754340008000000207000002018
:102A4C0070000020F0010020FEE70000014B186828
:102A5C00704700BF0C00002070B500250C4E0D4CCB
:102A6C00A41BA410A54209D100F02CFC00250A4E91
:102A7C000A4CA41BA410A54205D170BD56F82530F4
:102A8C0098470135EEE756F8253098470135F2E7BF
:102A9C004C3400084C3400084C3400085034000806
:102AAC000EB46FF0004100B59CB01DAB02900690C7
:102ABC00079104910848094953F8042B05910068C3
:102ACC0002A9019300F066F80022029B1A701CB058
:102ADC005DF804EB03B070470C0000200802FFFF08
:102AEC002DE9F0478E6882469E420C4690469946E8
:102AFC0037D88A8912F4906F31D00223256809697E
:102B0C006F1A656905EB450595FBF3F509F10103B2
:102B1C003B449D4238BF1D46530530D5294600F035
:102B2C0037FB064650B90C234FF0FF30CAF8003083
:102B3C00A38943F04003A381BDE8F0873A4621699D
:102B4C0000F0B6FAA38923F4906343F08003A381C9
:102B5C0026613E4426604E466561ED1BA5604E45E0
:102B6C0000D94E4632464146206800F0ACFAA368C4
:102B7C0000209B1BA36023681E442660DCE72A46CA
:102B8C0000F060FB06460028E2D12169504600F0B7
:102B9C00B3FAC8E72DE9F04F1D468B899DB01F068F
:102BAC0080460C4616460FD50B696BB9402100F0D8
:102BBC00EFFA2060206128B90C23C8F800304FF0E0
:102BCC00FF30C8E0402363610023099320238DF874
:102BDC00293030234FF0010B8DF82A3003953746FE
:102BEC003D4615F8013B0BB1252B3ED1B7EB060A40
:102BFC000BD05346324621464046FFF771FF013059
:102C0C0000F0A480099B534409933B78002B00F0FF
:102C1C009D8000234FF0FF32CDE9052304930793E9
:102C2C008DF853301A932F46052217F8011B504884
:102C3C0000F030FA049BD0B9D90644BF20228DF89D
:102C4C0053201A0744BF2B228DF853202A782A2AA6
:102C5C0015D02F4600200A25079A394611F8013B5A
:102C6C00303B092B4DD9B8B10FE02F46B8E7404A9D
:102C7C003D46801A0BFA00F018430490D3E7039AF0
:102C8C00111D12680391002A01DB079204E05242E5
:102C9C0043F00203079204933B782E2B0CD17B78E4
:102CAC002A2B33D1039B02371A1D1B680392002B6E
:102CBC00B8BF4FF0FF3305932E4D032239782846C9
:102CCC0000F0E8F938B14023401B03FA00F0049BF4
:102CDC000137034304933978062227487E1C8DF86C
:102CEC00281000F0D7F9002838D0244B13BB039BD5
:102CFC00073323F0070308330393099B4B440993D1
:102D0C006DE705FB023201200F46A6E700230A25DA
:102D1C00194601370593384610F8012B303A092A29
:102D2C0003D9002BC8D00591C6E705FB012101236F
:102D3C000746F0E703AB00932246114B04A940462B
:102D4C00AFF30080B0F1FF3F8146D6D1A3895B067B
:102D5C003FF535AF09981DB0BDE8F08F03AB00937C
:102D6C002246074B04A9404600F082F8EAE700BF70
:102D7C00183400081E34000822340008000000003B
:102D8C00ED2A00082DE9F04791461F468A680B6929
:102D9C0006469342B8BF1346C9F8003091F8432059
:102DAC000C46DDF8208012B10133C9F800302368DD
:102DBC00990642BFD9F800300233C9F800302568B3
:102DCC0015F0060507D104F1190AE368D9F80020BB
:102DDC009B1AAB4229DC94F843302268003318BFAD
:102DEC00012392062ED404F1430239463046C047E3
:102DFC00013021D02368E56803F00603042B18BFCB
:102E0C000025D9F800204FF0000908BFAD1AA368BF
:102E1C00226908BF25EAE5759342C4BF9B1AED18D9
:102E2C001A344D451AD1002008E001235246394688
:102E3C003046C047013003D14FF0FF30BDE8F0877A
:102E4C000135C2E73020E11881F843005A1C94F890
:102E5C0045102244023382F84310C4E70123224672
:102E6C0039463046C0470130E6D009F10109D8E7B0
:102E7C002DE9F04301F1430C0C46097E85B06E2917
:102E8C001746064698460C9A00F0B38022D8632960
:102E9C0036D00AD8002900F0B980582900F0838078
:102EAC0004F1420584F8421032E0642901D069290A
:102EBC00F6D120681368050603F104012AD51B68B6
:102ECC001160002B03DA2D225B4284F843206F48FB
:102EDC000A2239E0732900F09D8008D86F2920D090
:102EEC007029DDD1236843F02003236003E07529AA
:102EFC0017D07829D4D17823654884F8453055E02B
:102F0C00136804F14205191D1B68116084F84230E6
:102F1C0001238CE01B6810F0400F116018BF1BB22E
:102F2C00CFE713682568181D1060280601D51B68AB
:102F3C0002E06806FBD51B886F2914BF0A22082201
:102F4C005248002184F843106568002DA560C0F23A
:102F5C009580216821F004012160002B3DD1002DCA
:102F6C0040F08E806546082A0BD12368DB0708D514
:102F7C00236962689A42DEBF302305F8013C05F1F3
:102F8C00FF35ACEB05032361CDF800803B4603AA6B
:102F9C0021463046FFF7F6FE01304DD14FF0FF30A1
:102FAC0005B0BDE8F083394884F8451013682168F2
:102FBC001D1D1B6815600A060BD5CA0744BF41F0DE
:102FCC00200121601BB9226822F02002226010220D
:102FDC00B7E74D0648BF9BB2EFE76546B3FBF2F18E
:102FEC0002FB1133C35C05F8013D0B460029F5D1FA
:102FFC00B9E713682568181D6169106028061B68FD
:10300C0001D5196002E06A06FBD5198000236546DC
:10301C002361B9E71368191D11601D6862680021EE
:10302C00284600F037F808B1401B606063682361E4
:10303C00002384F84330A7E723692A4639463046F3
:10304C00C0470130AAD023689B0713D4E068039BC8
:10305C009842B8BF1846A3E701234A463946304682
:10306C00C04701309AD00135E368039A9B1AAB42F2
:10307C00F2DCEBE7002504F11909F5E7002BACD1E4
:10308C00037804F1420584F842306CE729340008D7
:10309C003A34000810B5C9B202449042034601D13B
:1030AC00002303E01C7801308C42F6D1184610BD89
:1030BC0010B5431E0A44914200D110BD11F8014BCA
:1030CC0003F8014FF7E7884210B501EB020307D86C
:1030DC00421E99420AD011F8014B02F8014FF8E751
:1030EC008342F5D98118D21AD34200D110BD13F8FE
:1030FC00014D01F8014DF7E738B50546002943D0DD
:10310C0051F8043C0C1F002BB8BFE41800F0D0F8A9
:10311C001E4A1368104633B9636014602846BDE834
:10312C00384000F0C6B8A3420BD92168621893420C
:10313C0001BF1A685B685218226063600460EDE797
:10314C0013465A680AB1A242FAD919685818A04213
:10315C000BD120680144581882421960DED11068E6
:10316C005268014419605A60D8E702D90C232B60CD
:10317C00D4E7206821188A4201BF116852680918E7
:10318C00216062605C60C9E738BD00BF940000201C
:10319C0070B5CD1C25F0030508350C2D38BF0C255A
:1031AC00002D064601DBA94203D90C233360002015
:1031BC0070BD00F07DF8214A1468214691B9204C6D
:1031CC0023681BB9304600F063F82060294630466E
:1031DC0000F05EF8431C24D10C233046336000F021
:1031EC0068F8E4E70B685B1B18D40B2B0FD90B604A
:1031FC00CC18CD50304600F05CF804F10B00231DC8
:10320C0020F00700C31AD3D05A42E250D0E74B68E3
:10321C008C4216BF636013600C46EBE70C464968A2
:10322C00CCE7C41C24F00304A04205D0211A30467C
:10323C0000F02EF80130CFD02560DBE794000020A1
:10324C0098000020F8B5074614460E4621B9BDE893
:10325C00F8401146FFF79CBF22B9FFF74DFF2546FA
:10326C002846F8BD00F026F8A0420FD22146384679
:10327C00FFF78EFF05460028F2D031462246FFF7B5
:10328C0017FF31463846FFF737FFE9E73546E7E7E2
:10329C0038B50023054C054608462360FFF76CFB48
:1032AC00431C02D1236803B12B6038BDEC01002014
:1032BC007047704751F8043C181F002BBCBF0B58CB
:1032CC00C0187047F8B500BFF8BC08BC9E467047E4
:0C32DC00F8B500BFF8BC08BC9E46704767
:1032E80002030405060708090A0B0C0D0E0F10103F
:1032F8000102000000640000010001460000000017
:10330800000000000102030406070809000000008D
:1033180001020304496E697420537563636573730E
:103328000D0A00004D657373616765205472616E04
:10333800736D69747465643A4D300D0A00000000BD
:103348004D657373616765205472616E736D69743E
:103358007465643A4D310D0A000000004D657373C1
:10336800616765205472616E736D69747465643A3F
:103378004D320D0A000000004D65737361676520CA
:103388005265636569766564203A2049442D25783D
:1033980020256420256420256420256420256420B8
:1033A8002564202564202564200D0A004163747576
:1033B8006174696E67204272616B650D0A000000D6
:1033C80052656C656173696E67204272616B650D49
:1033D8000A00000043414E204572726F7220446516
:1033E8007465637465640D0A00000000496E7369B2
:1033F80064652043414E31205478200D0A000000B6
:1034080043414E204572726F722E2E200D0A000025
:10341800232D302B2000686C4C00656667454647B5
:103428000030313233343536373839414243444538
:1034380046003031323334353637383961626364A7
:0434480065660000B5
:04344C003101000842
:043450000D01000862
:1034540001000000100000000024F400100000200F
:103464000000000000000000000000000000000058
:103474000000000000000000000000000000000048
:103484000000000000000000000000000000000038
:103494000000000000000000000000000000000028
:1034A4000000000000000000000000000000000018
:1034B4000000000000000000000000000000000008
:0400000508002A0DB8
:00000001FF
